:020000040000FA
:060000000A128A11122809
:10000800FE00030EF1000408F2000A08F300831250
:1000180003137F08F4000A128A11F5280A128A11BC
:100028001528F801F90183010A128A111B280A12FE
:100038008A115C210A128A1183120313B401F70191
:10004800B301F501F6010808AF00B0012F08F5006B
:100058003008F6006430A6000030A7007608A90032
:100068007508A8000A128A118C200A128A118312B4
:1000780003132608AF002F08F7000A30A600003047
:10008800A7007708AF00B0012F08A0003008A10032
:100098009C30A200FF30A3000A128A1188210A129C
:1000A8008A117508831203132007A800760803181D
:1000B800760A2107A9000A128A118C200A128A11CD
:1000C800831203132608B1003108B4009C30AF0036
:1000D8002F08A00077080A128A11AF210A128A1184
:1000E80083120313B000F630B1003108A0003408C1
:1000F8000A128A11AF210A128A11831203133007D8
:100108007507B2003208B30027280A128A1112288C
:1001180083120313AC01A71F922893289A28A609D3
:10012800A709A60A0319A70AAC01AC0AA91F9D28AA
:100138009E28A728A809A909A80A0319A90A01300D
:10014800AA002A08AC06AD01AE0126082704031947
:10015800AE28AF28E628AB01AB0ABD280130031052
:10016800A60DA70DFF3E031DB3280130AA002A08DB
:10017800AB07A71FC028C128B22801300310AD0D56
:10018800AE0DFF3E031DC22827082902031DCE28F5
:1001980026082802031CD128D228D9282608A80214
:1001A8002708031CA903A9022D1401300310A70C6A
:1001B800A60CFF3E031DDA280130AB02031DE5281B
:1001C800E628C1282C080319EA28EB28F028AD09ED
:1001D800AE09AD0A0319AE0A2E08A7002D08A6001D
:1001E80008000B1CF828F92808290618FC28FD28FF
:1001F80001290130F00070088807861804290529AC
:100208000729013088020B100B1D0B290C295129D5
:100218000B11F7308100850178087904031D152931
:10022800162926297708013E84000A128A11C62158
:100238000A128A118700013085000130F800003069
:10024800F900512978037904031D2B292C293C290D
:100258003408013E84000A128A11C6210A128A1142
:100268008700023085000230F8000030F90051297B
:10027800023078067904031D42294329512933089D
:10028800013E84000A128A11C6210A128A118700C7
:1002980004308500F801F90151297408FF0073083A
:1002A8008A0072088400710E8300FE0E7E0E09001B
:1002B8008316031788018901FF308316031386000C
:1002C800850187018801831203138501870188014D
:1002D800831603130F178F160F120F148112811133
:1002E800011581140110F73083120313810083165E
:1002F8000313811315149514161496148B178B1663
:100308000B118B150B10080083120313A401A50110
:10031800201C8F29902996292208A4070318A50ACA
:100328002308A50701300310A20DA30DFF3E031DEE
:10033800972901300310A10CA00CFF3E031D9E2934
:1003480020082104031DA929AA298C292508A10010
:100358002408A000080083120313A300A201231C91
:10036800B629B729BB292008A1002108A207031034
:10037800A00D0310A30C2308031DC329C429B32906
:100388002208080001308A000408840A8207003421
:100398003F3406345B344F3466346D347D3407346F
:0403A8007F346F34FB
:04400E00D430FF3F6C
:00000001FF
