:060000000A128A110E290C
:10000800F000030EF1000B1912200C1828208C1890
:100018003820710E8300F00E700E0900031383124E
:10002800F73081000B118801261C1C28A61C2228E9
:10003800051C26142708870088140800051C2610AC
:10004800280887000814080003138312DC308E0088
:100058000B308F000C10A00A2008023C031D372823
:10006800A001A20A080008000313831291018C1052
:1000780091018C10A10A2108053C031D4728A10104
:0C008800051848280514080005100800A1
:100200008A010A148F0582073F3406345B344F3469
:1002100066346D347D3407347F346F3403178316AE
:1002200088018901031383168601850187018801EE
:10023000031383120313831285018601870188014A
:10024000A601A2012E21422135214A215821031362
:1002500083122208A500692181212929031383160D
:100260000F178F160F120F14080003138316811235
:10027000811101158114011403138312F7308100D9
:100280000B1108008B178B160B110C148C140C100F
:100290008C1008000313831290161016901010147F
:1002A00003138312DC308E000B308F000C1008001B
:1002B00003138312FF3092000313831662309200FF
:1002C0000313831291018C100313831291018C107C
:1002D0000800A3010A30A5020318A30A03186A291B
:1002E0000A30A5070A3023020319A3010800A4015C
:1002F0000130A5020318A40A031878290130A507C4
:10030000080023080021A80025080021A7000800F4
:04400E00D430FF3F6C
:00000001FF
