:020000040000FA
:060000000A128A11122809
:10000800FE00030EF2000408F3000A08F40083124D
:1000180003137F08F5000A128A11BB280A128A11F5
:100028001528F601F70183120313B301B401B501D2
:10003800B601B701B801B901BA0183010A128A11E0
:1000480025280A128A1190210A128A116430831213
:100058000313A6000030A7003408A9003308A8003D
:100068000A128A1127210A128A11831203132708F8
:10007800B8002608B7000A30A6000030A7003808E4
:10008800A1003708A0009C30A200FF30A3000A128C
:100098008A11D5210A128A11831203133308200703
:1000A800A80034080318340A2107A9000A128A1183
:1000B80027210A128A11831203132708BA00260877
:1000C800B9003808A1003708A0009C30A200FF3012
:1000D800A3000A128A11D5210A128A118312031366
:1000E8002008AF002108B0003A08A1003908A00094
:1000F800F630A200FF30A3000A128A11D5210A1295
:100108008A118312031320082F07B100210803184E
:10011800210A3007B20033083107B5003408031844
:10012800340A3207B6009F189A289B282A281F0CE1
:10013800AF002F0C0F39053A031DA328A428A928BE
:100148001F08C33918389F00AD281F08C339143851
:100158009F000F3083120313AF00AF0BB128B428F0
:10016800831203139F142A280A128A1112280B1DBE
:10017800BE28BF2804290B11F730810086017608B4
:100188007704031DC828C928D9283708013E8400E8
:100198000A128A1100220A128A1187000130860089
:1001A8000130F6000030F700042976037704031DB8
:1001B800DE28DF28EF283908013E84000A128A1158
:1001C80000220A128A118700023086000230F600E7
:1001D8000030F7000429023076067704031DF5285D
:1001E800F62804293508013E84000A128A110022E3
:1001F8000A128A11870004308600F601F7010429E3
:100208000C1F072908291C291F0CF000700C0F3936
:10021800053A031D1029112914291E0888001B29D5
:100228001E08F000F1017008B3007108B4000C1347
:100238007508FF0074088A0073088400720E830032
:10024800FE0E7E0E090083120313AC01A71F2D2991
:100258002E293529A609A709A60A0319A70AAC0158
:10026800AC0AA91F382939294229A809A909A80AC5
:100278000319A90A0130AA002A08AC06AD01AE018B
:1002880026082704031949294A298129AB01AB0A01
:10029800582901300310A60DA70DFF3E031D4E2956
:1002A8000130AA002A08AB07A71F5B295C294D2942
:1002B80001300310AD0DAE0DFF3E031D5D2927086B
:1002C8002902031D692926082802031C6C296D29A7
:1002D80074292608A8022708031CA903A9022D14BB
:1002E80001300310A70CA60CFF3E031D7529013031
:1002F800AB02031D802981295C292C080319852953
:1003080086298B29AD09AE09AD0A0319AE0A2E0854
:10031800A7002D08A6000800603083160317880080
:100328008901033083160313890086018701880138
:1003380083120313860187018801831603130F179D
:100348008F160F120F1481128111011581140110DB
:10035800F730831203138100831603139F131F12B0
:100368009F12831203131F083F3940389F001F084C
:10037800C33914389F00203083120313A000A00B48
:10038800C3290000831203131F148B178B160B113C
:10039800831603130C17831203130C139F140B17E4
:1003A800080083120313A401A501201CDC29DD2900
:1003B800E3292208A4070318A50A2308A507013082
:1003C8000310A20DA30DFF3E031DE4290130031005
:1003D800A10CA00CFF3E031DEB2920082104031DDE
:1003E800F629F729D9292508A1002408A000080022
:1004000002308A000408840A820700343F3406342C
:100410005B344F3466346D347D3407347F346F344D
:04400E00D430FF3F6C
:00000001FF
