:060000000A128A110C280F
:10000800FE00030EF2000A08F3000A128A11ED2915
:100018000A128A110F288317AD30FD000230FE0046
:100028000F30FF00903084000A128A1130220A1221
:100038008A118313D830FD000130FE008E30FF0096
:10004800A03084000A128A1130220A128A11613003
:10005800FD000130FE000E30FF00203084000A123F
:100068008A1130220A128A11F501F601F701F80106
:1000780083010A128A1140280A128A11C6210A121B
:100088008A11831203138501860106308312031334
:10009800EA001330E900AD30E800E80B5128E90B1D
:1000A8005128EA0B51288312031320032104031D4E
:1000B8005E285F28FB289030E1000130E2000A1238
:1000C8008A114F210A128A11BD3083120313E100ED
:1000D8000030E2000A128A114F210A128A114D30AB
:1000E80083120313E1000030E2000A128A114F2143
:1000F8000A128A11393083120313E1000030E2003A
:100108000A128A114F210A128A1183120313A001BD
:10011800A101F501F601FB282230E1000030E200E0
:100128000A128A114F210A128A111F3083120313EF
:10013800EA007130E9001D30E800E80BA128E90B5E
:10014800A128EA0BA128A8280C30831203139900D0
:100158000130A0000030A1004928A030E1000030A3
:10016800E2000A128A114F210A128A11831203131C
:100178008C1EBF28C028BA28770885000B30831248
:100188000313EA002630E9005D30E800E80BCA28CE
:10019800E90BCA28EA0BCA280C308312031399000A
:1001A8008501AC28A030E1000030E2000A128A1173
:1001B8004F210A128A11831203138C1EE428E528A2
:1001C800DF28770886000B3083120313EA002630F5
:1001D800E9005D30E800E80BEF28E90BEF28EA0BAF
:1001E800EF280C308312031399008601AC28760897
:1001F800003A0319002949287508313A031990284B
:10020800033A0319B128013A0319D62849280A12D2
:100218008A110C280134003448346F346C3461344A
:1002280020346D3475346E3464346F342C34203497
:100238007134753465342034743461346C343F342B
:1002480020340D34003428343334293420344334F2
:1002580061346D346234693461347234203450341A
:100268004F3452345434423420340D34003428345A
:10027800323429342034433461346D34623469347F
:1002880061347234203450344F345234543441344D
:1002980020340D34003483120313E601E701752975
:1002A80066086107E4006208E3000318E30AE61F32
:1002B8005E29E303831203136308E50064088400DE
:1002C8008317651C831300080A128A113F220A1239
:1002D8008A11013083120313E6070318E70A003076
:1002E800E70766086107E4006208E3000318E30A09
:1002F800E61F7F29E303831203136308E5006408FC
:1003080084008317651C83130008031D8C298D291D
:1003180054290800533465346C34653463346934C3
:100328006F346E346534733420346E347534653408
:1003380076346F3420346334613472346534613414
:10034800633474346534723420340D340034283402
:1003580031342934203444346534733470346C3483
:1003680065346734613472342034633461347234F0
:1003780061346334743465347234653473342034CE
:100388000D3400348316031788018901831603137B
:10039800850186010F178F160F160F1418121811E2
:1003A80083160317871533308316031399009A01B0
:1003B8008312031398171813181683160313981625
:1003C8008B170B17831203138C12831603138C16C7
:1003D8000800831203138C1EF229F329082A1A082D
:1003E800F000F1017008F5007108F6004230F000E5
:1003F800F00BFC290000831203131A08F000F10126
:100408007008F7007108F80073088A00720E8300FC
:10041800FE0E7E0E09005134753465342034613483
:100428006334633469346F346E342034643465342F
:10043800733461347334203465346A346534633416
:1004480075347434613472343F3420340D340034DC
:100458007E088A007F0882000A128A112C220A125A
:100468008A118000840A04087D0603190034FF0AF3
:100478000319FE0A302AF400831203130C1E452ABE
:0A048800462A402A74089900080073
:04400E00D430FF3F6C
:00000001FF
