:060000000A128A11142906
:10000800F300030EF4000B1819200B191020740EBE
:100018008300F30E730E09002521F00A7008143CC2
:10002800031D1828F001F20A080003138312061CA6
:0A003800850A861C85030B100800E2
:100200008A010A148F0582073F3406345B344F3469
:1002100066346D347D3407347F346F3477347C3406
:1002200039345E34793471342B213D2161214021F0
:10023000472152215B210313831285010508002108
:1002400087007208002188001E29031383123C30A6
:1002500081000B110800031783168801890103131D
:10026000831606148614850105168516051785174D
:1002700087018801870188010800811315149514EE
:10028000031383160F178F160F120F140800031392
:100290008316811281110115811401140313831235
:1002A00025210800031383161614961403138312D2
:1002B00006080B1008008B178B160B118B150B10F3
:1002C000080003138312FC30870088000030F00020
:0402D000F200080030
:04400E00D430FF3F6C
:00000001FF
