:060000000A128A11142906
:10000800F000030EF1000B183A200B191020710EA6
:100018008300F00E700E090003138312D93081009B
:100028000B118801211C2028A11C2628211D2B2802
:10003800A11D3028211E3528A1012114240887007C
:1000480088140800A1142508870008140800211541
:100058002608870008150800A115270887008815B5
:1000680008002116280887000816080003138312C1
:0C007800061C850A861F85030B1008007B
:100200008A010A148F0582073F3406345B344F3469
:1002100066346D347D3407347F346F3477347C3406
:1002200039345E34793471340317831688018901B7
:100230000313831681308600E03088008701850132
:1002400039210313831285018701880155215C211F
:1002500062216B21031383120508A0003D21452173
:100260000508AC008C212B0882212A087821290856
:100270002C29811315149517080020080F39A200A6
:10028000200E0F39A3000800080022080021A40056
:1002900023080021A5002B080021A6002A08002120
:1002A000A70029080021A8000800031383160F17D0
:1002B0008F160F120F1408008B178B160B118B154E
:1002C0000B100800031383161614961703138312DA
:1002D00006080B1008000313831681128111011503
:1002E0008114011403138312D93081000B1108000B
:1002F000A9010130AC020318A90A031879290130B9
:10030000AC070800AA010A30AC020318AA0A0318B5
:1003100083290A30AC070800AB016430AC02031833
:0C032000AB0A03188D296430AC070800FC
:04400E00C430FF3F7C
:00000001FF
