:060000000A128A11142906
:100200008A010A148F0582073F3406345B344F3469
:1002100066346D347D3407347F346F3477347C3406
:1002200039345E34793471340317831688018901B7
:100230000313831685140615860187012A213121AF
:100240000313831286018801BF0087008000A0008D
:1002500040212829031383160F138F160F120F1432
:1002600008000313831681128111011581140114F2
:100270003A21080003138312323081000B11080069
:0A0280000B1D40293A21860A0800F0
:04400E00D430FF3F6C
:00000001FF
