:060000000A128A1100291A
:10000800F200030EF3000B190F200B181E20730EBD
:100018008300F20E720E031383123C3081000B1121
:10002800F00A7008283C031D1D28F001F10A710828
:100038008800080003138312061C850A861C8503A2
:040048000B10080091
:10020000062116211A2121210313831203178316B5
:1002100088018901031383160614861485010516C7
:1002200085160517851787018801080081131514A5
:1002300095140800031383160F178F160F120F144F
:100240000800031383168112811101158114011412
:0E0250002A21080003138312323081000B11A3
:04400E00D430FF3F6C
:00000001FF
