:020000040000FA
:060000000A128A110C280F
:10000800FE00030EF2000A08F3000A128A111328F0
:100018000A128A110F2883010A128A11C42883122E
:1000280003130C1F182819286C280C131F0CF00038
:10003800700C0F39053A031D2228232848281E086A
:10004800F0000310700C7C3E95001E080139F0008A
:10005800F00EF00D17087006DF397006970083164A
:1000680003131E08F00007300310F00CFF3E031DB9
:1000780038287008F100F10E83120313170871066F
:10008800EF39710697006C281E08F0000310700CF9
:100098007C3E9B001E080139F000F00EF00D1D0893
:1000A8007006DF3970069D00831603131E08F000E2
:1000B80007300310F00CFF3E031D5D287008F100A7
:1000C800F10E831203131D087106EF3971069D00A6
:1000D80073088A00720E8300FE0E7E0E09006030DF
:1000E80083160317880089010330831603138900D8
:1000F80087010F178F160F160F149F131F129F12C9
:10010800831203131F083F3980389F001F08C33923
:1001180014389F002130F400F40B90288312031345
:100128001F148316031307158714FF3092003F30FE
:100138008312031397051708F0390C3897001D0828
:10014800F0390C389D000F3095000F309B00CF30F0
:1001580097051D129D128C100330920412158C1CE9
:10016800B628B728B3288C108316031307118710F5
:100178008B170B170C17831203130C139F1408000B
:100188000A128A1173200A128A11831203139F1804
:10019800CE28CF28C9281F0CF500750C0F39053A51
:1001A800031DD728D828DD281F08C33918389F0011
:1001B800E1281F08C33914389F002130F500F50BDA
:1001C800E328831203139F14C9280A128A110C28E2
:04400E00D430FF3F6C
:00000001FF
