:060000000A128A110C280F
:10000800FE00030EF6000A08F7000A128A11FE2CF9
:100018000A128A110F280A128A11FC270A128A1159
:10002800AF000A128A11FD270A128A11B000AB012B
:10003800AC01AD01AE01F801F901FA01FB01FC01C7
:10004800FD0183010A128A1129280A128A115326EE
:100058000A128A11013083120313AF000030B00076
:1000680083129F1838283928A1281F0CA800280CAB
:100078000F39003A031D412842284B281F08C3396D
:1000880004389F001E08A8002808FD0097281F0CA8
:10009800A800280C0F39013A031D532854285D285D
:1000A8001F08C33908389F001E08A8002808FC004C
:1000B80097281F0CA800280C0F39023A031D652841
:1000C800662880281F08C3390C389F001E08A8001E
:1000D8002808FB0080301E020318732874287A2829
:1000E8000A128A15D3270A128A1197280A128A1126
:1000F800B1270A128A119728C3309F051E08A80045
:100108002808FA0080301E0203188B288C289228B1
:100118000A128A11D3220A128A1197280A128A11FE
:1001280082270A128A11203083120313A800A80B11
:100138009B280000831203139F14063083120313B5
:10014800AA001330A900AD30A800A80BA928A90B54
:10015800A928AA0BA928831203132F033004031D0F
:10016800B628B728542ADB30A1008330A2000A122F
:100178008A11DE260A128A11D93083120313A100CC
:100188008430A2000A128A11DE260A128A11A230CD
:1001980083120313A1008330A2000A128A11DE26FB
:1001A8000A128A11653083120313A1008330A2005A
:1001B8000A128A11DE260A128A11243083120313C6
:1001C800A1008330A2000A128A11DE260A128A11BF
:1001D800003083120313A1008330A2000A128A118F
:1001E800DE260A128A11E93083120313A100843033
:1001F800A2000A128A11DE260A128A11F730831227
:100208000313A1008330A2000A128A11DE260A1203
:100218008A11BF3083120313A1008330A2000A128F
:100228008A11DE260A128A11843083120313A10070
:100238008330A2000A128A11DE260A128A1145307A
:1002480083120313A1008330A2000A128A11DE264A
:100258000A128A11F73083120313A1008430A20016
:100268000A128A11DE260A128A11C6308312031373
:10027800A1008430A2000A128A11DE260A128A110D
:1002880083120313AF01B001AB01AC01542A8316EA
:10029800031385010C308312031399004230A10027
:1002A8008430A2000A128A11DE260A128A110A1262
:1002B8008A15D3270A128A111F3083120313AA0042
:1002C8007130A9001D30A800A80B6829A90B68295E
:1002D800AA0B68296F290C30831203139900013087
:1002E80083120313AF000030B000FF3083160313EE
:1002F800850034288316031385010C3083120313F9
:1003080099001230A1008430A2000A128A11DE2658
:100318000A128A110A128A11B1270A128A111F3089
:1003280083120313AA007130A9001D30A800A80B7E
:100338009B29A90B9B29AA0B9B29A2290C30831264
:10034800031399002E288316031385010C3083129A
:10035800031399009C30A1008430A2000A128A116C
:10036800DE260A128A110A128A11D3220A128A1167
:1003780060298316031385010C3083120313990037
:100388007030A1008430A2000A128A11DE260A12F7
:100398008A110A128A1182270A128A116029831681
:1003A800031385010C308312031399005930A100FF
:1003B8008430A2000A128A11DE260A128A110A1251
:1003C8008A11A6220A128A1193298316031385011A
:1003D8000C308312031399002A30A1008430A20044
:1003E8000A128A11DE260A128A110A128A11532762
:1003F8000A128A1160298316031385010C308312AF
:1004080003139900B130A1008430A2000A128A11A6
:10041800DE260A128A110A128A1179220A128A1110
:1004280060298316031385010C3083120313990086
:100438008630A1008430A2000A128A11DE260A1230
:100448008A110A128A1124270A128A11602983162E
:10045800031385010C30831203139900D330A100D4
:100468008430A2000A128A11DE260A128A111F306D
:1004780083120313AA007130A9001D30A800A80B2D
:10048800432AA90B432AAA0B432A4A2A0C3083126F
:10049800031399000A128A1182270A128A117329F2
:1004A8002C08003A0319592A34282B08313A031921
:1004B8004B29033A03197E29013A0319A729073A58
:1004C8000319BD29013A0319D329033A0319E92964
:1004D800013A0319FF290F3A0319152A013A03199A
:1004E8002B2A34280A128A110C2883120313A2011A
:1004F800A3018714E43083120313A000832A842AFB
:10050800A00B822A00008312031387103230831253
:100518000313A100DD30A000A00B902AA10B902AA4
:10052800013083120313A2070318A30A0030A3079C
:1005380000302302323003192202031CA42AA52A00
:100548007D2A080083120313A201A3010715E430D2
:1005580083120313A000B02AB12AA00BAF2A00000F
:10056800831203130711323083120313A100DD3005
:10057800A000A00BBD2AA10BBD2A013083120313D2
:10058800A2070318A30A0030A30700302302323061
:1005980003192202031CD12AD22AAA2A080083128C
:1005A8000313A201A3018715E43083120313A000EB
:1005B800DD2ADE2AA00BDC2A000083120313871130
:1005C800323083120313A100DD30A000A00BEA2A09
:1005D800A10BEA2A013083120313A2070318A30A06
:1005E8000030A30700302302323003192202031C13
:1005F800FE2AFF2AD72A0800283434342934203424
:100608004D346F3476346534723420347034693440
:10061800653472346E346134203469347A34713418
:10062800753469346534723464346F342034613419
:1006380020343934303420340D3420340D3400342F
:1006480028343334293420344D346F3476346534C7
:100658007234203470346934653472346E346134E1
:10066800203469347A3471347534693465347234B9
:1006780064346F34203461342034303420340D3401
:10068800003428343834293420344D346F347634E7
:1006980065347234203470346934653472346E349D
:1006A80061342034643465347234653463346834B6
:1006B8006F34203461342034393430340D340D34FF
:1006C800003428343234293420344D346F347634AD
:1006D80065347234203470346934653420346934B4
:1006E8007A347134753469346534723464346F34EF
:1006F8002034613420343934303420340D3400341B
:1007080028343734293420344D346F347634653402
:100718007234203470346934653472346E34613420
:1007280020346434653472346534633468346F3427
:1007380020346134203430340D34003428343134DA
:10074800293420344D346F3476346534723420348F
:10075800703469346534203469347A3471347534CA
:1007680069346534723464346F342034613420342D
:1007780030340D34003428343634293420344D34A0
:100788006F347634653472342034703469346534A7
:1007980020346434653472346534633468346F34B7
:1007A800203461342034393430340D340034513439
:1007B80075346534203461346334633469346F3498
:1007C8006E342034643465347334613473342034C3
:1007D80065346A346534633475347434613472341E
:1007E8003F340D34003428343534293420344D3422
:1007F8006F34763465347234203470346934653437
:1008080020346434653472346534633468346F3446
:1008180020346134203430340D34003447346934A2
:10082800723461346E3464346F3420347034693413
:10083800653472346E346134203449347A34713416
:100848002034613420343934303400344734693446
:10085800723461346E3464346F34203470346934E3
:10086800653472346E3461342034643465347234DF
:100878002034613420343934303400344734693416
:10088800723461346E3464346F34203470346934B3
:10089800653472346E346134203449347A347134B6
:1008A80020346134203430340034473469347234AD
:1008B80061346E3464346F34203470346934653490
:1008C80072346E34613420346434653472342034C4
:1008D800613420343034003447346934723461343C
:1008E8006E3464346F34203470346934653472344F
:1008F800203449347A347134203461342034393422
:100908003034003447346934723461346E346434BA
:100918006F3420347034693465347234203464346C
:10092800653472342034613420343934303400343E
:1009380047346934723461346E3464346F3420342B
:100948007034693465347234203449347A347134FB
:1009580020346134203430340034473469347234FC
:1009680061346E3464346F342034703469346534DF
:100978007234203464346534723420346134203461
:100988003034003428343934293420344C34653434
:100998006534723420346C346F34733420346434E6
:1009A800613474346F34733400344C3461346434D7
:1009B8006F34203469347A34713475346934653469
:1009C800723464346F340D3400344C34613464341C
:1009D8006F34203444346534723465346334683495
:1009E8006F340D3400344434613474346F347334E8
:1009F8000D340034831203138C1E032D042D0B2D8C
:100A08001A08F400F5017408AB007508AC000B1C5B
:100A18000E2D0F2DEA2D861B122D132D9B2D2D0823
:100A28002E04031D182D192D922D0130AD07031822
:100A3800AE0A0030AE07F801F901081588118030B8
:100A48001E020318282D292D2F2D0A128A15D926A2
:100A58000A128A11342D0A128A157F270A128A115E
:100A68004E30F500EB30F400F40B382DF50B382D33
:100A78007C08831203139E0080301E020318452D44
:100A8800462D4C2D0A128A1502270A128A11512D59
:100A98000A128A15A9270A128A114E30F500EB307E
:100AA800F400F40B552DF50B552D7B088312031319
:100AB8009E0080301E020318622D632D692D0A12D4
:100AC8008A1587260A128A116E2D0A128A152B2773
:100AD8000A128A114E30F500EB30F400F40B722D37
:100AE800F50B722D8030831203131E0203187D2D1F
:100AF8007E2D842D0A128A15B0260A128A11892D94
:100B08000A128A1555270A128A114E30F500EB3061
:100B1800F400F40B8D2DF50B8D2D9B2D2D032E043C
:100B2800031D972D982D9B2DAD01AE010811831241
:100B38000313061BA02DA12DEA2D78087904031DA7
:100B4800A62DA72DE02DAD01AE010130F807031841
:100B5800F90A0030F907081188157D089E004E3003
:100B6800F500EB30F400F40BB72DF50BB72D7C082E
:100B7800831203139E004E30F500EB30F400F40BA3
:100B8800C32DF50BC32D7B08831203139E004E3033
:100B9800F500EB30F400F40BCF2DF50BCF2D7A08D0
:100BA800831203139E004E30F500EB30F400F40B73
:100BB800DB2DF50BDB2DEA2D78037904031DE52DDC
:100BC800E62DEA2DF801F9018811EA2D83120313A5
:100BD8000C1FEF2DF02D4C2E0C131F0CF400740C71
:100BE8000F39003A031DF92DFA2D1F2E1E08F400A7
:100BF8000310740C3C3E95001E080139F400F40EF5
:100C0800F40D17087406DF3974069700831603136A
:100C18001E08F40007300310F40CFF3E031D0F2ECE
:100C28007408F500F50E8312031317087506EF39DB
:100C3800750697004C2E1F0CF400740C0F39013AFE
:100C4800031D272E282E4C2E1E08F4000310740CAA
:100C58003C3E9B001E080139F400F40EF40D1D08FB
:100C68007406DF3974069D00831603131E08F4000A
:100C780007300310F40CFF3E031D3D2E7408F500E9
:100C8800F50E831203131D087506EF3975069D00CE
:100C980077088A00760E8300FE0E7E0E09000F305C
:100CA8008316031788008901FF3083160313850014
:100CB800FF308600FF30890087018801871783127B
:100CC80003138501860187018801831603130F1713
:100CD8008F160F160F14811281110115811401103E
:100CE800F730831203138100831603139F131F1217
:100CF8009F12831203131F083F3980389F00C330A7
:100D08009F05203083120313A000A00B892E00003A
:100D1800831203131F148316031307158714FF3058
:100D280092003F308312031397051708F0390C38E7
:100D380097001D08F0390C389D000F3095000F30D2
:100D48009B00CF3097051D129D128C100330920422
:100D580012158C1CB02EB12EAD2E8C1083160313D9
:100D680007118710181218118316031787153330C7
:100D78008316031399009A01831203139817181303
:100D880018168316031398168113951715179617B7
:100D980016178B170B170B108B15831203138C1256
:100DA800831603138C16831203130C138316031371
:100DB8000C17080083120313A601A701072F2608A2
:100DC8002107A4002208A3000318A30AA61FED2EDA
:100DD800A303831203132308A5002508FF00240892
:100DE80084000A128A11E0270A128A110A128A114B
:100DF800F2270A128A11013083120313A607031877
:100E0800A70A0030A70726082107A4002208A30084
:100E18000318A30AA61F112FA30383120313230881
:100E2800A5002508FF00240884000A128A11E0277B
:100E38000A128A11003A031D222F232FE32E0800DD
:100E480083120313A201A30187140430831203132E
:100E5800A100E330A000A00B2F2FA10B2F2F342FC0
:100E6800831203138710313083120313A1000B3050
:100E7800A000A00B3D2FA10B3D2F013083120313BF
:100E8800A2070318A30A0030A30700302302323058
:100E980003192202031C512F522F282F08008312F6
:100EA8000313A201A3010715043083120313A10041
:100EB800E330A000A00B5E2FA10B5E2F632F8312DF
:100EC80003130711313083120313A1000B30A00064
:100ED800A00B6C2FA10B6C2F013083120313A207F8
:100EE8000318A30A0030A307003023023230031985
:100EF8002202031C802F812F572F0800831203130F
:100F0800A201A3018715043083120313A100E33063
:100F1800A000A00B8D2FA10B8D2F922F83120313EE
:100F28008711313083120313A1000B30A000A00BEE
:100F38009B2FA10B9B2F013083120313A2070318C9
:100F4800A30A0030A307003023023230031922021B
:100F5800031CAF2FB02F862F080083120313A201A2
:100F6800A3010714043083120313A100E330A00087
:100F7800A00BBC2FA10BBC2FC12F8312031307108A
:100F8800313083120313A1000B30A000A00BCA2F2D
:100F9800A10BCA2F013083120313A2070318A30A57
:100FA8000030A30700302302323003192202031C49
:100FB800DE2FDF2FB52F0800FF1BEA2F83137F18C2
:100FC80083170008840A0319FF0A08007F087F397D
:100FD8008A000408840A0319FF0A82008312031393
:100FE800A0000C1EF82FF92FF52F200899000800F3
:040FF800013400348C
:101D0E00F201F301831203130714E430F0008F2E57
:101D1E00902EF00B8E2E932E0000831203130710BD
:101D2E003230F100DD30F000F00B9B2EF10B9B2ECC
:101D3E00A02E0130F2070318F30A0030F30700302B
:101D4E007302323003197202031CAE2EAF2E892E8F
:101D5E000800F201F301831203138715E430F0003B
:101D6E00B82EB92EF00BB72EBC2E00008312031323
:101D7E0087113230F100DD30F000F00BC42EF10B84
:101D8E00C42EC92E0130F2070318F30A0030F307F0
:101D9E0000307302323003197202031CD72ED82E74
:101DAE00B22E0800F201F301831203130715E4307B
:101DBE00F000E12EE22EF00BE02EE52E0000831255
:101DCE00031307113230F100DD30F000F00BED2E71
:101DDE00F10BED2EF22E0130F2070318F30A00304C
:101DEE00F30700307302323003197202031C002F06
:101DFE00012FDB2E0800F201F30183120313871467
:101E0E00E430F0000A2F0B2FF00B092F0E2F0000DD
:101E1E008312031387103230F100DD30F000F00B27
:101E2E00162FF10B162F1B2F0130F2070318F30A92
:101E3E000030F30700307302323003197202031CB4
:101E4E00292F2A2F042F0800F201F3018312031306
:101E5E0007140430F100E430F000F00B342FF10BD6
:101E6E00342F00008312031307103130F1000B30B2
:101E7E00F000F00B402FF10B402F452F0130F207F1
:101E8E000318F30A0030F3070030730232300319DF
:101E9E007202031C532F542F2D2F0800F201F30151
:101EAE008312031387150430F100E430F000F00BB9
:101EBE005E2FF10B5E2F000083120313871131305A
:101ECE00F1000B30F000F00B6A2FF10B6A2F6F2F21
:101EDE000130F2070318F30A0030F30700307302E3
:101EEE00323003197202031C7D2F7E2F572F0800EC
:101EFE00F201F3018312031307150430F100E430ED
:101F0E00F000F00B882FF10B882F000083120313C3
:101F1E0007113130F1000B30F000F00B942FF10B64
:101F2E00942F992F0130F2070318F30A0030F307AC
:101F3E0000307302323003197202031CA72FA82F30
:101F4E00812F0800F201F30183120313871404306A
:101F5E00F100E430F000F00BB22FF10BB22F0000C5
:101F6E008312031387103130F1000B30F000F00BA9
:101F7E00BE2FF10BBE2FC32F0130F2070318F30A49
:101F8E000030F30700307302323003197202031C63
:101F9E00D12FD22FAB2F080083120313A201A3015E
:101FAE000714E43083120313A000DD2FDE2FA00BE5
:101FBE00DC2F000083120313071032308312031339
:101FCE00A100DD30A000A00BEA2FA10BEA2F0130FB
:101FDE0083120313A2070318A30A0030A3070030CD
:101FEE002302323003192202031CFE2FFF2FD72F9C
:021FFE000800D9
:04400E00D430FF3F6C
:00000001FF
